{
  "contractName": "TekSwap",
  "abi": [
    {
      "inputs": [
        {
          "internalType": "contract TekToken",
          "name": "_token",
          "type": "address"
        }
      ],
      "stateMutability": "nonpayable",
      "type": "constructor"
    },
    {
      "anonymous": false,
      "inputs": [
        {
          "indexed": false,
          "internalType": "address",
          "name": "account",
          "type": "address"
        },
        {
          "indexed": false,
          "internalType": "address",
          "name": "token",
          "type": "address"
        },
        {
          "indexed": false,
          "internalType": "uint256",
          "name": "amount",
          "type": "uint256"
        },
        {
          "indexed": false,
          "internalType": "uint256",
          "name": "rate",
          "type": "uint256"
        }
      ],
      "name": "Purchased",
      "type": "event"
    },
    {
      "anonymous": false,
      "inputs": [
        {
          "indexed": false,
          "internalType": "address",
          "name": "account",
          "type": "address"
        },
        {
          "indexed": false,
          "internalType": "address",
          "name": "token",
          "type": "address"
        },
        {
          "indexed": false,
          "internalType": "uint256",
          "name": "amount",
          "type": "uint256"
        },
        {
          "indexed": false,
          "internalType": "uint256",
          "name": "rate",
          "type": "uint256"
        }
      ],
      "name": "Sold",
      "type": "event"
    },
    {
      "inputs": [],
      "name": "name",
      "outputs": [
        {
          "internalType": "string",
          "name": "",
          "type": "string"
        }
      ],
      "stateMutability": "view",
      "type": "function",
      "constant": true
    },
    {
      "inputs": [],
      "name": "rate",
      "outputs": [
        {
          "internalType": "uint256",
          "name": "",
          "type": "uint256"
        }
      ],
      "stateMutability": "view",
      "type": "function",
      "constant": true
    },
    {
      "inputs": [],
      "name": "token",
      "outputs": [
        {
          "internalType": "contract TekToken",
          "name": "",
          "type": "address"
        }
      ],
      "stateMutability": "view",
      "type": "function",
      "constant": true
    },
    {
      "inputs": [],
      "name": "buy",
      "outputs": [],
      "stateMutability": "payable",
      "type": "function",
      "payable": true
    },
    {
      "inputs": [
        {
          "internalType": "uint256",
          "name": "_amount",
          "type": "uint256"
        }
      ],
      "name": "sell",
      "outputs": [],
      "stateMutability": "nonpayable",
      "type": "function"
    }
  ],
  "bytecode": "0x60806040526040518060400160405280601e81526020017f54656b5377617020446563656e7472616c697a65642045786368616e676500008152506000908051906020019062000051929190620000d2565b5060646002553480156200006457600080fd5b5060405162000e4838038062000e4883398181016040528101906200008a919062000199565b80600160006101000a81548173ffffffffffffffffffffffffffffffffffffffff021916908373ffffffffffffffffffffffffffffffffffffffff160217905550506200028c565b828054620000e0906200020d565b90600052602060002090601f01602090048101928262000104576000855562000150565b82601f106200011f57805160ff191683800117855562000150565b8280016001018555821562000150579182015b828111156200014f57825182559160200191906001019062000132565b5b5090506200015f919062000163565b5090565b5b808211156200017e57600081600090555060010162000164565b5090565b600081519050620001938162000272565b92915050565b600060208284031215620001ac57600080fd5b6000620001bc8482850162000182565b91505092915050565b6000620001d282620001ed565b9050919050565b6000620001e682620001c5565b9050919050565b600073ffffffffffffffffffffffffffffffffffffffff82169050919050565b600060028204905060018216806200022657607f821691505b602082108114156200023d576200023c62000243565b5b50919050565b7f4e487b7100000000000000000000000000000000000000000000000000000000600052602260045260246000fd5b6200027d81620001d9565b81146200028957600080fd5b50565b610bac806200029c6000396000f3fe60806040526004361061004a5760003560e01c806306fdde031461004f5780632c4e722e1461007a578063a6f2ae3a146100a5578063e4849b32146100af578063fc0c546a146100d8575b600080fd5b34801561005b57600080fd5b50610064610103565b60405161007191906108b5565b60405180910390f35b34801561008657600080fd5b5061008f610191565b60405161009c9190610917565b60405180910390f35b6100ad610197565b005b3480156100bb57600080fd5b506100d660048036038101906100d191906106a2565b6103aa565b005b3480156100e457600080fd5b506100ed610614565b6040516100fa919061089a565b60405180910390f35b6000805461011090610a78565b80601f016020809104026020016040519081016040528092919081815260200182805461013c90610a78565b80156101895780601f1061015e57610100808354040283529160200191610189565b820191906000526020600020905b81548152906001019060200180831161016c57829003601f168201915b505050505081565b60025481565b6000600254346101a7919061097f565b905080600160009054906101000a900473ffffffffffffffffffffffffffffffffffffffff1673ffffffffffffffffffffffffffffffffffffffff166370a08231306040518263ffffffff1660e01b815260040161020591906107da565b60206040518083038186803b15801561021d57600080fd5b505afa158015610231573d6000803e3d6000fd5b505050506040513d601f19601f8201168201806040525081019061025591906106cb565b1015610296576040517f08c379a000000000000000000000000000000000000000000000000000000000815260040161028d906108d7565b60405180910390fd5b600160009054906101000a900473ffffffffffffffffffffffffffffffffffffffff1673ffffffffffffffffffffffffffffffffffffffff1663a9059cbb33836040518363ffffffff1660e01b81526004016102f3929190610871565b602060405180830381600087803b15801561030d57600080fd5b505af1158015610321573d6000803e3d6000fd5b505050506040513d601f19601f820116820180604052508101906103459190610679565b507fa326259ec721617acd3cb2a00bcbeac91eefe409880e49aa2bbf473ed648da4933600160009054906101000a900473ffffffffffffffffffffffffffffffffffffffff168360025460405161039f949392919061082c565b60405180910390a150565b80600160009054906101000a900473ffffffffffffffffffffffffffffffffffffffff1673ffffffffffffffffffffffffffffffffffffffff166370a08231336040518263ffffffff1660e01b815260040161040691906107da565b60206040518083038186803b15801561041e57600080fd5b505afa158015610432573d6000803e3d6000fd5b505050506040513d601f19601f8201168201806040525081019061045691906106cb565b101561046157600080fd5b600060025482610471919061094e565b9050804710156104b6576040517f08c379a00000000000000000000000000000000000000000000000000000000081526004016104ad906108f7565b60405180910390fd5b600160009054906101000a900473ffffffffffffffffffffffffffffffffffffffff1673ffffffffffffffffffffffffffffffffffffffff166323b872dd3330856040518463ffffffff1660e01b8152600401610515939291906107f5565b602060405180830381600087803b15801561052f57600080fd5b505af1158015610543573d6000803e3d6000fd5b505050506040513d601f19601f820116820180604052508101906105679190610679565b503373ffffffffffffffffffffffffffffffffffffffff166108fc829081150290604051600060405180830381858888f193505050501580156105ae573d6000803e3d6000fd5b507f16dd16959a056953a63cf14bf427881e762e54f03d86b864efea8238dd3b822f33600160009054906101000a900473ffffffffffffffffffffffffffffffffffffffff1684600254604051610608949392919061082c565b60405180910390a15050565b600160009054906101000a900473ffffffffffffffffffffffffffffffffffffffff1681565b60008151905061064981610b48565b92915050565b60008135905061065e81610b5f565b92915050565b60008151905061067381610b5f565b92915050565b60006020828403121561068b57600080fd5b60006106998482850161063a565b91505092915050565b6000602082840312156106b457600080fd5b60006106c28482850161064f565b91505092915050565b6000602082840312156106dd57600080fd5b60006106eb84828501610664565b91505092915050565b6106fd816109d9565b82525050565b61070c81610a21565b82525050565b600061071d82610932565b610727818561093d565b9350610737818560208601610a45565b61074081610b37565b840191505092915050565b6000610758601f8361093d565b91507f546f6b656e206c697175696469747920697320696e73756666696369656e74006000830152602082019050919050565b6000610798601f8361093d565b91507f4574686572206c697175696469747920697320696e73756666696369656e74006000830152602082019050919050565b6107d481610a17565b82525050565b60006020820190506107ef60008301846106f4565b92915050565b600060608201905061080a60008301866106f4565b61081760208301856106f4565b61082460408301846107cb565b949350505050565b600060808201905061084160008301876106f4565b61084e60208301866106f4565b61085b60408301856107cb565b61086860608301846107cb565b95945050505050565b600060408201905061088660008301856106f4565b61089360208301846107cb565b9392505050565b60006020820190506108af6000830184610703565b92915050565b600060208201905081810360008301526108cf8184610712565b905092915050565b600060208201905081810360008301526108f08161074b565b9050919050565b600060208201905081810360008301526109108161078b565b9050919050565b600060208201905061092c60008301846107cb565b92915050565b600081519050919050565b600082825260208201905092915050565b600061095982610a17565b915061096483610a17565b92508261097457610973610ad9565b5b828204905092915050565b600061098a82610a17565b915061099583610a17565b9250817fffffffffffffffffffffffffffffffffffffffffffffffffffffffffffffffff04831182151516156109ce576109cd610aaa565b5b828202905092915050565b60006109e4826109f7565b9050919050565b60008115159050919050565b600073ffffffffffffffffffffffffffffffffffffffff82169050919050565b6000819050919050565b6000610a2c82610a33565b9050919050565b6000610a3e826109f7565b9050919050565b60005b83811015610a63578082015181840152602081019050610a48565b83811115610a72576000848401525b50505050565b60006002820490506001821680610a9057607f821691505b60208210811415610aa457610aa3610b08565b5b50919050565b7f4e487b7100000000000000000000000000000000000000000000000000000000600052601160045260246000fd5b7f4e487b7100000000000000000000000000000000000000000000000000000000600052601260045260246000fd5b7f4e487b7100000000000000000000000000000000000000000000000000000000600052602260045260246000fd5b6000601f19601f8301169050919050565b610b51816109eb565b8114610b5c57600080fd5b50565b610b6881610a17565b8114610b7357600080fd5b5056fea26469706673582212201af1ac207ce8515c2ed73d2ffd7e403ffe790ea8a97342a56a9bd97c6c66451964736f6c63430008000033",
  "immutableReferences": {},
  "source": "// SPDX-License-Identifier: MIT\r\npragma solidity ^0.8.0;\r\n\r\nimport \"./TekToken.sol\";\r\n\r\ncontract TekSwap {\r\n    string public name = \"TekSwap Decentralized Exchange\";\r\n    TekToken public token;\r\n    uint256 public rate = 100;\r\n\r\n    event Sold(\r\n        address account,\r\n        address token,\r\n        uint256 amount,\r\n        uint256 rate\r\n    );\r\n\r\n    event Purchased(\r\n        address account,\r\n        address token,\r\n        uint256 amount,\r\n        uint256 rate\r\n    );\r\n\r\n    constructor(TekToken _token) {\r\n        token = _token;\r\n    }\r\n\r\n    function buy() public payable {\r\n        uint256 tokenAmount = msg.value * rate;\r\n\r\n        require(token.balanceOf(address(this)) >= tokenAmount, \"Token liquidity is insufficient\");\r\n\r\n        token.transfer(msg.sender, tokenAmount);\r\n        emit Purchased(msg.sender, address(token), tokenAmount, rate);\r\n    }\r\n\r\n    function sell(uint256 _amount) public {\r\n        require(token.balanceOf(msg.sender) >= _amount);\r\n\r\n        uint256 etherAmount = _amount / rate;\r\n\r\n        require(address(this).balance >= etherAmount, \"Ether liquidity is insufficient\");\r\n\r\n        token.transferFrom(msg.sender, address(this), _amount);\r\n        payable(msg.sender).transfer(etherAmount);\r\n\r\n        emit Sold(msg.sender, address(token), _amount, rate);\r\n    }\r\n}\r\n",
  "sourcePath": "C:\\Users\\zaida\\OneDrive\\Desktop\\Blockchain Dev\\Current Projects\\TekSwap\\contracts\\TekSwap.sol",
  "compiler": {
    "name": "solc",
    "version": "0.8.0+commit.c7dfd78e.Emscripten.clang"
  },
  "schemaVersion": "3.4.7",
  "updatedAt": "2022-07-02T02:10:37.071Z",
  "networkType": "ethereum",
  "devdoc": {
    "kind": "dev",
    "methods": {},
    "version": 1
  },
  "userdoc": {
    "kind": "user",
    "methods": {},
    "version": 1
  }
}